:10000000686F0020F13601005F460200DD36010016
:10001000DD360100DD360100DD36010000000000A4
:10002000000000000000000000000000E1380100B6
:10003000DD360100000000004D380100DD36010012
:100040001D3B0100357502001D3B01001D3B0100F9
:100050001D3B01001D3B01001D3B01001D3B01003C
:10006000EB7402001D3B01001D3B01001F750200E7
:100070001D3B01001D3B01001D3B01001D3B01001C
:100080001D3B01001D3B01001D3B01001D3B01000C
:100090001D3B01001D3B01001D3B01001D3B0100FC
:1000A0001D3B01001D3B01001D3B01001D3B0100EC
:1000B0001D3B01001D3B01001D3B01001D3B0100DC
:1000C0001D3B01001D3B01001D3B01001D3B0100CC
:0C00D0001D3B01001D3B01001D3B010019
:0400DC00FFFFFFFF24
:1000E0009FED177B70B5184A184D002342F220008F
:1000F0002021A97028806B76136082F82830AB71BC
:1001000082ED027BEB7185ED047B1C46A9762B7694
:100110006A1802F814300134202CFAD101260C4858
:100120002E720CF0D9F80B4B18700B4B1C700CF0A6
:1001300043F9C5F8A00009F049F9EE7670BD00BF9B
:10014000FFFFFFFFFFFFFFFF48150020C81500203D
:10015000C1990000781500204015002081F0004171
:1001600002E000BF83F0004330B54FEA41044FEA9C
:10017000430594EA050F08BF90EA020F1FBF54EA37
:10018000000C55EA020C7FEA645C7FEA655C00F0D3
:10019000E2804FEA5454D4EB5555B8BF6D420CDDA4
:1001A0002C4480EA020281EA030382EA000083EA27
:1001B000010180EA020281EA0303362D88BF30BDC7
:1001C00011F0004F4FEA01314FF4801C4CEA11311D
:1001D00002D0404261EB410113F0004F4FEA03337C
:1001E0004CEA133302D0524263EB430394EA050F07
:1001F00000F0A780A4F10104D5F1200E0DDB02FA76
:100200000EFC22FA05F2801841F1000103FA0EF209
:10021000801843FA05F359410EE0A5F120050EF1CF
:10022000200E012A03FA0EFC28BF4CF0020C43FA00
:1002300005F3C01851EBE37101F0004507D54FF00D
:10024000000EDCF1000C7EEB00006EEB0101B1F55D
:10025000801F1BD3B1F5001F0CD349085FEA3000A3
:100260004FEA3C0C04F101044FEA445212F5800FAE
:1002700080F09A80BCF1004F08BF5FEA500C50F14B
:10028000000041EB045141EA050130BD5FEA4C0C2E
:10029000404141EB0101013C28BFB1F5801FE9D28B
:1002A00091F0000F04BF01460020B1FA81F308BFAE
:1002B0002033A3F10B03B3F120020CDA0C3208DD7A
:1002C00002F1140CC2F10C0201FA0CF021FA02F155
:1002D0000CE002F11402D8BFC2F1200C01FA02F1C5
:1002E00020FA0CFCDCBF41EA0C019040E41AA2BFEA
:1002F00001EB0451294330BD6FEA04041F3C1CDAB2
:100300000C340EDC04F11404C4F1200220FA04F0D1
:1003100001FA02F340EA030021FA04F345EA03017B
:1003200030BDC4F10C04C4F1200220FA02F001FA3D
:1003300004F340EA0300294630BD21FA04F02946BF
:1003400030BD94F0000F83F4801306BF81F4801158
:100350000134013D4EE77FEA645C18BF7FEA655CCB
:1003600029D094EA050F08BF90EA020F05D054EA9D
:10037000000C04BF1946104630BD91EA030F1EBFA2
:100380000021002030BD5FEA545C05D140004941A6
:1003900028BF41F0004130BD14F580043CBF01F599
:1003A000801130BD01F0004545F0FE4141F470017F
:1003B0004FF0000030BD7FEA645C1ABF194610465A
:1003C0007FEA655C1CBF0B46024650EA013406BF5B
:1003D00052EA033591EA030F41F4002130BD00BF1A
:1003E00090F0000F04BF0021704730B54FF48064D7
:1003F00004F132044FF000054FF0000150E700BF58
:1004000090F0000F04BF0021704730B54FF48064B6
:1004100004F1320410F0004548BF40424FF00001A3
:100420003EE700BF42004FEAE2014FEA31014FEAE6
:1004300002701FBF12F07F4393F07F4F81F0605135
:10044000704732F07F4208BF704793F07F4F04BF80
:1004500041F40021704730B54FF4607401F000455D
:1004600021F000411CE700BF50EA010208BF7047BD
:1004700030B54FF000050AE050EA010208BF7047AE
:1004800030B511F0004502D5404261EB41014FF417
:10049000806404F132045FEA915C3FF4D8AE4FF01F
:1004A00003025FEADC0C18BF03325FEADC0C18BF02
:1004B000033202EBDC02C2F1200300FA03FC20FA53
:1004C00002F001FA03FE40EA0E0021FA02F11444A0
:1004D000BDE600BF70B54FF0FF0C4CF4E06C1CEAB9
:1004E00011541DBF1CEA135594EA0C0F95EA0C0F2A
:1004F00000F0DEF82C4481EA030621EA4C5123EA9D
:100500004C5350EA013518BF52EA033541F48011CB
:1005100043F4801338D0A0FB02CE4FF00005E1FB7E
:1005200002E506F00042E0FB03E54FF00006E1FBC8
:1005300003569CF0000F18BF4EF0010EA4F1FF040B
:10054000B6F5007F64F5407404D25FEA4E0E6D414B
:1005500046EB060642EAC62141EA55514FEAC5205C
:1005600040EA5E504FEACE2EB4F1FD0C88BFBCF5D8
:10057000E06F1ED8BEF1004F08BF5FEA500E50F189
:10058000000041EB045170BD06F0004646EA01014F
:1005900040EA020081EA0301B4EB5C04C2BFD4EB81
:1005A0000C0541EA045170BD41F480114FF0000E7A
:1005B000013C00F3AB8014F1360FDEBF002001F0E8
:1005C000004170BDC4F10004203C35DA0C341BDC62
:1005D00004F11404C4F1200500FA05F320FA04F034
:1005E00001FA05F240EA020001F0004221F0004168
:1005F00010EBD37021FA04F642EB06015EEA430EDB
:1006000008BF20EAD37070BDC4F10C04C4F120050A
:1006100000FA04F320FA05F001FA04F240EA0200BD
:1006200001F0004110EBD37041F100015EEA430E8E
:1006300008BF20EAD37070BDC4F1200500FA05F2AE
:100640004EEA020E20FA04F301FA05F243EA02032D
:1006500021FA04F001F0004121FA04F220EA02003C
:1006600000EBD3705EEA430E08BF20EAD37070BD82
:1006700094F0000F0FD101F00046400041EB010162
:1006800011F4801F08BF013CF7D041EA060195F044
:10069000000F18BF704703F00046520043EB0303FE
:1006A00013F4801F08BF013DF7D043EA06037047EB
:1006B00094EA0C0F0CEA135518BF95EA0C0F0CD0F6
:1006C00050EA410618BF52EA4306D1D181EA03013C
:1006D00001F000414FF0000070BD50EA410606BF36
:1006E0001046194652EA430619D094EA0C0F02D17B
:1006F00050EA013613D195EA0C0F05D152EA0336C0
:100700001CBF104619460AD181EA030101F00041DD
:1007100041F0FE4141F470014FF0000070BD41F026
:10072000FE4141F4780170BD70B54FF0FF0C4CF400
:10073000E06C1CEA11541DBF1CEA135594EA0C0F1F
:1007400095EA0C0F00F0A7F8A4EB050481EA030E6C
:1007500052EA03354FEA013100F088804FEA033353
:100760004FF0805545EA131343EA12634FEA022221
:1007700045EA111545EA10654FEA00260EF00041E2
:100780009D4208BF964244F1FD0404F5407402D234
:100790005B084FEA3202B61A65EB03055B084FEAC5
:1007A00032024FF480104FF4002CB6EB020E75EBC2
:1007B000030E22BFB61A754640EA0C005B084FEAEA
:1007C0003202B6EB020E75EB030E22BFB61A754667
:1007D00040EA5C005B084FEA3202B6EB020E75EBB2
:1007E000030E22BFB61A754640EA9C005B084FEA2A
:1007F0003202B6EB020E75EB030E22BFB61A754637
:1008000040EADC0055EA060E18D04FEA051545EA25
:1008100016754FEA06164FEAC30343EA52734FEACE
:10082000C2025FEA1C1CC0D111F4801F0BD141EA47
:1008300000014FF000004FF0004CB6E711F4801FAC
:1008400004BF01430020B4F1FD0C88BFBCF5E06F8C
:100850003FF6AFAEB5EB030C04BFB6EB020C5FEA9C
:10086000500C50F1000041EB045170BD0EF0004EF1
:100870004EEA113114EB5C04C2BFD4EB0C0541EA23
:10088000045170BD41F480114FF0000E013C90E620
:1008900045EA060E8DE60CEA135594EA0C0F08BFE4
:1008A00095EA0C0F3FF43BAF94EA0C0F0AD150EAE3
:1008B00001347FF434AF95EA0C0F7FF425AF104676
:1008C00019462CE795EA0C0F06D152EA03353FF49E
:1008D000FDAE1046194622E750EA410618BF52EA1B
:1008E00043067FF4C5AE50EA41047FF40DAF52EAEF
:1008F00043057FF4EBAE12E74FEA4102B2F1E04369
:1009000024BFB3F5001CDCF1FE5C0DD901F0004CF6
:100910004FEAC0024CEA5070B2F1004F40EB830046
:1009200008BF20F00100704711F0804F21D113F172
:100930003872BCBF01F00040704741F480114FEAAB
:100940005252C2F11802C2F1200C10FA0CF320FA34
:1009500002F018BF40F001004FEAC1234FEAD32351
:1009600003FA0CFC40EA0C0023FA02F34FEA4303BB
:10097000CCE77FEA625307D150EA01331EBF4FF044
:10098000FE4040F44000704701F0004040F0FE405F
:1009900040F40000704700BF53B94AB9002908BFAE
:1009A00000281CBF4FF0FF314FF0FF3000F00CB8B3
:1009B000ADF1080C6DE904CE0BF00AFFDDF804E0A0
:1009C000DDE9022304B07047704700BF2DE9F0074E
:1009D00091E8F807B2E802105B1854EB0C04B2E897
:1009E00002104D4156EB0C06B2E802104F4158EB95
:1009F0000C08B2E8021059EB01095AEB0C0A80E826
:100A0000F80780410130BDE8F00770472DE9F00795
:100A100091E8F807B2E802105B1A74EB0C04B2E834
:100A200002108D4176EB0C06B2E802108F4178EB94
:100A30000C08B2E8021079EB01097AEB0C0A80E8A5
:100A4000F80780414042BDE8F00770472DE9F00704
:100A5000524290E87800B1E880071740DB1918EAA5
:100A6000020854EB080419EA020955EB09051AEAD1
:100A7000020A56EB0A0678C090E87800B1E88007D1
:100A800017407B4118EA020854EB080419EA0209EE
:100A900055EB09051AEA020A56EB0A0678C08041AE
:100AA0000130BDE8F00770472DE9F007524290E8A9
:100AB0007800B1E880071740DB1B18EA020874EBE6
:100AC000080419EA020975EB09051AEA020A76EB2D
:100AD0000A0678C090E87800B1E880071740BB416B
:100AE00018EA020874EB080419EA020975EB090513
:100AF0001AEA020A76EB0A0678C080414042BDE855
:100B0000F00770472DE9F00152424FF0040890E8D9
:100B1000300091E8C000A31B1340E41AF618EB1B49
:100B20001340ED1AFF1830C0C0C1B8F10108EED172
:100B3000BDE8F001704700BF00B592EC080AB1E8CB
:100B4000805707EE101A53EC102A56EC114AA7FBF7
:100B50000251A8FB020BE7FB6310E9FB62B041EC1A
:100B6000145AA8FB0351EAFB6201E7FB64B5E7FBFB
:100B70006605E8FB661505EE10BAA9FB03B6EAFBAD
:100B80006316ECFB6356E8FB640BE9FB641BEAFBB2
:100B9000645BECFB646B05EE900AACFB023012EE7A
:100BA000104AEEFB6250E9FB6460EAFB64B0E7FBCD
:100BB0006431E8FB645112EE904AE8FB6461E9FBA2
:100BC00064B1EAFB640106EE103AA7FB043213EEAF
:100BD000104AE7FB6462E8FB64B2E9FB6402EAFBEB
:100BE000641211EE904AE9FB6453EAFB646313EE6E
:100BF000904AE7FB64B3E8FB6403E9FB6413EAFB98
:100C0000642306EE905A17EE109A99E8000610EE4B
:100C1000108AA9FB0854EAFB68B412EE108AECFBB8
:100C20006804EEFB6814E9FB6824EAFB683410EE04
:100C3000908AEEFB6865E9FB68B5EAFB680512EE91
:100C4000908AECFB6815EEFB6825E9FB6835EAFB4A
:100C5000684507EE106A11EE108AAEFB0876E9FBD4
:100C60006806EAFB681613EE108AECFB6826EEFBBA
:100C70006836E9FB6846EAFB685611EE908AECFBA1
:100C800068B7EEFB6807E9FB6817EAFB682713EE15
:100C9000908AECFB6837EEFB6847E9FB6857EAFB94
:100CA000686700BD2DE9F04F07EE900AFFF744FF9B
:100CB00017EE908A07EE90BAA8EC084A88E8FF0081
:100CC000BDE8F08F00B591E89857A3FB0352A3FB52
:100CD0000401E3FB6420E3FB671042EC145AA3FB1E
:100CE0000752E3FB6802E4FB6415E3FB6805E3FBE2
:100CF0006925A4FB07B6E3FB6926E3FB6A56E4FB20
:100D0000670BE4FB682BE3FB6A5BE3FB6C6B40EC7B
:100D1000151AA4FB0810E4FB6950E3FB6C60E3FBCD
:100D20006EB0E7FB6721E4FB6951E4FB6A61E3FB1A
:100D30006EB1E4FB6E0106EE102AA7FB0832E4FB5D
:100D40006A62E4FB6CB2E4FB6E02E7FB6E12E7FB47
:100D50006853E7FB6963E4FB6CB3E7FB6C03E7FBF9
:100D60006E13E8FB6E2306EE905AA7FB0954E7FBCF
:100D70006AB4E7FB6C04E8FB6C14E8FB6E24E9FB47
:100D80006E34E8FB6865E7FB6AB5E8FB6A05E8FBDB
:100D90006C15E9FB6C25E9FB6E35EAFB6E4507EE49
:100DA000106AA8FB0976E8FB6A06E9FB6A16E9FB0C
:100DB0006C26EAFB6C36EAFB6E46ECFB6E56E8FBF3
:100DC00069B7E9FB6907E9FB6A17EAFB6A27EAFBEF
:100DD0006C37ECFB6C47ECFB6E57EEFB6E6700BDAF
:100DE0002DE9F04F07EE900AFFF76CFF17EE908A9F
:100DF00007EE90BAA8EC084A88E8FF00BDE8F08F3B
:100E000030B44FF0000310F8014B11F8015B013AC8
:100E100084EA050443EA0403F5D1A3F101034FEA90
:100E2000D37030BC704700BF4FF0000310F8012BA7
:100E3000013943EA0203F9D1A3F101034FEAD37068
:100E4000704700BF30B411F8014B12F8015B6C40E1
:100E500000F8014B013BF6D130BC70472DE9F0079B
:100E600091E8F807B2E802105B1854EB0C04B2E802
:100E700002104D4156EB0C06B2E802104F4158EB00
:100E80000C08B2E8021059EB01095AEB0C0A89412F
:100E9000B3F1FF3374F1FF3475F1FF3576F10006DD
:100EA00077F1000778F1000879F101097AF1FF3A4A
:100EB00051F100015B184C414D4156F1000657F1CC
:100EC000000758F1000859EBD1795AEB010A80E884
:100ED000F807BDE8F00770472DE9F00791E8F8073B
:100EE000B2E802105B1A74EB0C04B2E802108D41F8
:100EF00076EB0C06B2E802108F4178EB0C08B2E8F2
:100F0000021079EB01097AEB0C0A89415B184C411C
:100F10004D4156F1000657F1000758F1000859EB12
:100F2000D1795AEB010A80E8F807BDE8F00770476D
:100F300018EB040859EB05095AEB060A5BEB070BA3
:100F40005FF0000C4CF1000C18EB050859EB06099A
:100F50005AEB070A5BEB070B50EB0C005FF0000C41
:100F600051EB0C0152EB0C0263414CF1000CB8EB5D
:100F7000070879F100097AF1000A7BEB040BA8411C
:100F8000B141A241B3416CF1000CBBEB050BB04188
:100F9000B941AA41BB416CF1000C4CF001068CF048
:100FA000020718EB060859EB6C095AEB6C0A7BEB4D
:100FB0006C0B70EB6C0471EB6C0572EB670653EB1A
:100FC0006C076CEB6C0C18EB0C0059EB0C015AEB3A
:100FD0000C025BF1000354F1000455F1000556EBDF
:100FE000DC7657EB0C0770472DE9F04F07EE900ABF
:100FF000FFF7A2FD59EC168A17EE10AAFFF798FF2B
:1010000059EC148A5BEC15AAFFF792FF17EE908A51
:1010100088E8FF00BDE8F08F2DE9F04F07EE900A59
:10102000FFF750FE59EC168A17EE10AAFFF780FF63
:1010300059EC148A5BEC15AAFFF77AFF17EE908A39
:1010400088E8FF00BDE8F08F1FB50B4B01934FF40C
:101050008C73ADF8083008238DF80A3083788DF84A
:101060000B3001A9FF2301208DF80C3000F084FB28
:1010700005B05DF804FB00BF3BD800001FB50A4B6C
:1010800001934FF43A73ADF8083008238DF80A3015
:1010900001A943788DF80B3000208DF80C0000F08A
:1010A0006BFB05B05DF804FBC9FF0000F7B5044613
:1010B0000D4641B9124B1B78012B04D0019101A8B8
:1010C0000121FFF7F3FF23680E4E0F4F0733002D6A
:1010D00023F0070323600CBF2046002000F028FB0C
:1010E000002556F8043B0BB1384698470135072DCB
:1010F000F7D100F091FB23681844206003B0F0BDE5
:101100004009002040000020420900202DE9F7435B
:101110002A4C0190074601A80E46FFF7C7FFA578A5
:10112000E3784FF000091D44EDB2C8465FFA89F339
:101130009D4238D80198033020F00300002E019022
:10114000414618BF002000F0ABFC019B21791D181F
:10115000019589B16379627C0335002E25F0030582
:101160001A44D2B2A38901950CBF2846002000F092
:101170000BFD019B18440190A17B79B123796BB1E0
:10118000019B073323F00703002E0CBF18460020F5
:10119000019304F0BBFE019B184401900198C01B11
:1011A00003B0BDE8F083A37A627A217AE0790CF08B
:1011B000BFF909F101098044B8E700BF40090020E8
:1011C0008FB572B6194B9D6AE5B9BFF34F8F1849B9
:1011D000184BCA6802F4E0621343CB60BFF34F8F31
:1011E00000BFFDE7B4FBF6F4DAB20133002CF9D10D
:1011F00002F110036B440A2603F80C4C32B901A823
:10120000A847E2E7044600230A26EDE7531E04AC94
:1012100054FA83F4DAB2C3B2B3FBF6F706FB173322
:10122000303304F80C3CB0FBF6F0E7E7400900204F
:1012300000ED00E00400FA051FB5104B9A7A8DF816
:1012400009205A7A8DF8082002A81A7ADB79ADF8BD
:101250000C20ADF80A3003F087FA18B1D921032029
:10126000FFF7AEFF012301A88DF804300DF009FD52
:1012700008B1DD21F3E705B05DF804FB400900206B
:1012800038B5054690B30AF0B3FE10B94FF0FF3001
:1012900038BD07F005FDB0F5FA7FF7D8164C1748B2
:1012A000A562002500F0E4F929461C2214482570A7
:1012B0000BF01CFA26222946A01C0BF017FA01237A
:1012C000E37023711B23E37140F21B33238102235C
:1012D000A3721F23A3810823A373EFF3108472B6B4
:1012E00000F028FD2CB962B62046D1E76FF015005A
:1012F000CEE72846CCE700BF4009002039120000A5
:101300004000002010B5002836D1204C2378022B55
:101310002FD059B1002A32D0023905292CD8DFE864
:1013200001F0030F1D2B20231378E370012100200F
:10133000FFF7ECFEB0F5803F24DA0123237010BDE7
:101340009378E3B1D378D3B113781A2B17D95378A4
:101350001A2B14D91368C4F80730E7E71378237100
:10136000E4E71388A381E1E71388FF2B07D8A37371
:10137000DCE74FF0FF30E2E76FF02C00DFE76FF0C3
:101380001500DCE76FF00B00D9E700BF4009002033
:1013900070B50D460646E8B1E1B111F0070419D168
:1013A00000F0A4F8C8B130460AF096FF0C4E214672
:1013B00086F82C002846FFF7A9FE0EF032FE96F8BC
:1013C0002C00214603F064FAFFF736FF0223337046
:1013D000204670BD6FF01500FBE74FF0FF30F8E7D7
:1013E0004009002010B5074C2378022B05D103F0EB
:1013F00067FA94F82C000AF08BFF0CF086F90020B5
:10140000207010BD4009002050B1074B03F11402B9
:1014100053F8041B40F8041B9342F9D10020704795
:101420006FF01500704700BFB8C8020010B5064B3A
:101430001C7834B903F0F6F9044B054A5A6020468B
:1014400010BD4FF0FF30FBE74009002040000020B6
:101450004910000010B5064B1C7834B903F0F6F9BA
:10146000044B054A1A60204610BD4FF0FF30FBE7E1
:1014700040090020400000207D10000010B5054B01
:101480001C781CB903F09AF9204610BD4FF0FF30CC
:10149000FBE700BF4009002010B5054B1C781CB9C4
:1014A0000DF005FC204610BD4FF0FF30FBE700BFFC
:1014B0004009002010B5054B1C781CB90DF0FAFB53
:1014C000204610BD4FF0FF30FBE700BF4009002071
:1014D000024B02681A600020704700BF70090020AC
:1014E000014B1B68184700BF70090020024B1868A9
:1014F000003818BF01207047700900202DE9F34122
:10150000284E031D04463360304604F057F9022884
:10151000054607D1234920460BF0C9FA284602B0F8
:10152000BDE8F081042836D13378072B18D13E204E
:1015300000F04EF878B9F378327901A943EA022332
:101540006846ADF800300BF08EFD0028DCD053214A
:101550000820FFF735FE052000F07AF80028EAD0D1
:10156000314620460BF00AFBB0F5817F01D3722192
:10157000EEE70028C8D0277894F80280384600F0BB
:1015800027F80028C0D03E2FC8D1404600F060F8B0
:101590000028C3D1B8E70828C0D1024920460BF083
:1015A000B5FABBE774090020074B4FF0FF3141F655
:1015B000FF72C3E9001205490022C1E900221F2180
:1015C000C3E90212704700BF00000020B8090020E4
:1015D0003F280CD801380B4BC0F3421200F01F001B
:1015E00053F8223023FA00F000F001007047FF2882
:1015F00006D04038C0F34212034B00F01F00EFE763
:101600000120704700000020B80900200146074B68
:10161000006849681A4603C240F48C221A6041F0FF
:10162000107242F4FF625A60704700BF0000002051
:101630000246024B0068516803C37047B809002096
:101640000246024B0068516803C37047080000203F
:101650000138064BC0F3421203EB820300F01F0077
:101660009B6823FA00F000F00100704700000020A2
:10167000014B1860704700BFC009002007B5FFF795
:1016800093FF0CF0EDFE044B1B6813B101909847DB
:10169000019803B05DF804FBC00900200B880288A4
:1016A000F0B5C3F30E049EB204F11803C57CC35A0F
:1016B00005352A442B4497B213FA82F3013B428842
:1016C000B3FBF7F313FB07439BB29A42044A93BF61
:1016D00022EA0603324013439BB20B80F0BD00BFE9
:1016E0000080FFFF10B5114B00EB41041A786389AD
:1016F000B3FBF2F303FB0223013A1A44B2F5706F15
:10170000027928BF00231A448378B2FBF3F019440E
:1017100003FB1020091AB1FBF3F003FB1013134471
:101720006FEA43436FEA5343638110BDC40900204D
:1017300010B5104BC0B15A78022A04D040F22B11D8
:101740001720FFF73DFD03225A70026812F00701CF
:1017500002D04FF49871F3E75C685A60224402604B
:10176000C3E903119A6010BD0122C3E901005A7058
:10177000F9E700BFC40900202DE9F041254E96F895
:1017800001E00EF0FD0CBCF1010F04D040F2451158
:101790001720FFF715FD91F80680B8F1080F02D960
:1017A00040F24711F4E7CF7997B34546022D7268AE
:1017B00038BF02257B1D5C0002EB43036A1E134405
:1017C0006D422B408D884544013DC8F100022A40FE
:1017D0004FF6FE75AA4202D94FF4A971D8E7BEF1BF
:1017E000030F12D106EB80001C1BC56815B140F237
:1017F0005711CDE7C460A770228084F803C0087A2F
:1018000009682071080CE080218107FB02337360B6
:10181000BDE8F081C40900202DE9F041364C637821
:10182000012B65D0032B04D040F267111720FFF77E
:10183000C7FCD4E901329A4202D04FF4B571F5E702
:10184000A44600235CF80C6F23701D4601229E46BF
:101850005CF82210571E49B108798A78FF2829D1EF
:1018600081F804E095423CBFD5B201230022002F4D
:10187000EED003B12570256925B3002640F6FF6739
:10188000AB78F1B28B421DD905EB410328465F814D
:10189000FFF728FF0136F3E776B196F8048080451C
:1018A0000CD1B0780244FF2A0AD903B125704FF455
:1018B0008371BBE7002FEFD00020F3E73846F1E754
:1018C0000871CFE7E56875B1002640F6FF67AB7891
:1018D000F1B28B4207D905EB410328465F81FFF740
:1018E00001FF0136F3E7042363700020BDE8F081B7
:1018F000022360686370F9E7C4090020F8B54FF669
:10190000FF730380184B03EB81010546C868B8B12B
:1019100086780379B3FBF6F206FB1233DBB2194685
:101920000A1D00EB4202B2F902705488002F09DB55
:101930000131B1FBF6F206FB1211C9B28B42EFD1B5
:101940000020F8BDFF29FBD0C4F30E03C4782B8020
:1019500024B94FF4D9711720FFF732FC5380BDE84A
:10196000F8400BF0C4BD00BFC40900201E4B03EBC0
:10197000810170B5CC6805464CB3B0F5706F04D3E7
:101980004FF4E0711720FFF71BFC014620460BF0D7
:1019900090FDFF28014604D02046BDE870400BF0C2
:1019A000A6BDA078B5FBF0F300FB1353DBB21946DC
:1019B0000A1D04EB4206B6F90260002E09DB013174
:1019C000B1FBF0F200FB1211C9B28B42F0D1002042
:1019D00070BDFF29FBD08B4204EB42021CBF0023E9
:1019E000E3705580D8E700BFC4090020094B03EB22
:1019F000810110B5CC68014620460BF05AFDFF2846
:101A0000014604D02046BDE810400BF070BD002018
:101A100010BD00BFC4090020F8B5104B03EB8101D5
:101A20000746CC68014620460BF043FDFF280546DB
:101A300011D0E688238953EA064606D0014620469F
:101A40000BF055FD01463846B04720462946FFF7C2
:101A500049FE0020F8BD0320FCE700BFC4090020B8
:101A600038B50E4B827903EB82030446D86808B977
:101A7000022038BD8278E1799142F9D24B1CE371A2
:101A800000EB41035D89B3F90A30002BF3DBA5803D
:101A90000BF02DFD20600020EBE700BFC409002003
:101AA00070B5044610F003000E4603D049211820FB
:101AB000FFF786FB0BF0A2FC054624B10348314634
:101AC00004600BF09BFC284670BD00BFD8090020C5
:101AD0002DE9F04F1E4C85B092462268BDF83CB00F
:101AE00098468146BDF838300D461AB95B2118205A
:101AF000FFF766FB1A460A21504603930BF029FBB9
:101B00005A460646092140460BF023FB311807468A
:101B100020680BF09DFC039BC9F8000018B92860F1
:101B200005B0BDE8F08F84192C60D9F8000000934F
:101B3000524631460A230BF0BEFA2868CDF838B079
:101B400009234246394605B0BDE8F04F0BF0B3BA61
:101B5000D809002070B50E4604460BF003FB05467D
:101B600030460BF0FFFA044B2A1821461868BDE8EE
:101B700070400BF097BC00BFD8090020014B1868DB
:101B80000BF059BCD8090020F8B511441D4EC9B25C
:101B900010F00305317003D04E210920FFF710FB30
:101BA0001F2B19D89B009BB2033323F003039BB276
:101BB00008B17060338101EB81047668E2004FF078
:101BC000010C00EBC404EFB2B94212D8D01D03FBE4
:101BD000010020F00700F8BDFF2B4FEA430204D9B3
:101BE000FF339342DFDB93B2DEE77C2AFBDC7C230E
:101BF000DAE710B186F800C07460013528361C445D
:101C0000E1E700BFDC09002038B5144A14785368B6
:101C10000021C8B2844203D8A9210920FFF7D0FAD5
:101C20001846013105782833002DF2D0002181704B
:101C300001241289447044688161C161920800F1F5
:101C40002001051D21F8022B994245F8044B14444C
:101C5000F8D100234361037038BD00BFDC090020C8
:101C60002DE9F8434B7880460C4602F0040602F05A
:101C7000FB07D3B1DFB12E4BD4F804901D89B7BB5D
:101C800001236370AD08A761E76104F120034A46B0
:101C9000211D04F1280023F8025B984241F8042B2F
:101CA0002A44F8D10023636101E0002FE3D0FF2331
:101CB000A370002E18BF0226A3191B7D032B03D18E
:101CC000022F1CBF0136F6B2A31901221A7506F1C4
:101CD0000C0204EB8606002324F812307268A3700D
:101CE000C8F80020A8F804304046BDE8F883002179
:101CF00014226170A0180AF0F9FCB5F5FF7F0FD22D
:101D00006B08ED1AADB209EB0502C4F80490258406
:101D1000A2606384C4F80C90A5842261E384C6E7C2
:101D2000B5F5EE6F4FF0FF03EBD940F27265EAE7CD
:101D3000DC090020134B012200214FF0FF309A6094
:101D4000C3F80012C3F80803C3F80015C3F804254C
:101D50009A60C3F80803C3F80015C3F804250A49BC
:101D60000A4A03F580334FF40040C3F80825C1F850
:101D70008000BFF34F8FBFF36F8FC1F88001C3F8AE
:101D80000825704700F0004000E100E00000F63F49
:101D90000A46192302F8033B0448C368C1F803301C
:101DA0000369536043699360704700BFE8090020EE
:101DB000024B5A8C02435A845B6A1847E809002098
:101DC000014B00215B6A1847E809002010B5154C4B
:101DD00006F052F805F07EFC208DFFF7F1FF237E20
:101DE0006BB12246104952F80C3BE36063685360C4
:101DF000A368936004F1190002220DF078FC236BB4
:101E000093F87C30022B02D1084804F035F8A36B1C
:101E100094F8341094F835009847002384F83C3047
:101E200010BD00BFE8090020911D0000140A002029
:101E3000034B93F83C300BB1FFF7C8BF704700BFAE
:101E4000E809002070B51D4C256B636C236495F880
:101E5000AC30064694F848000BB1031DD8B295F893
:101E600069102EB9FF2803D195F868308B4201D054
:101E700005F0CCFE95F8AC30D3B1E06C06F07EF9FD
:101E8000012384F86830D5E94423E16C206CC4E96F
:101E9000182305F0D5FB16B9304606F0ADF995F8D4
:101EA0006810002006F0F2F9022384F83C3070BD7F
:101EB000206C06F063F905F00DFCECE7E809002062
:101EC0002DE9FF41414C94F83C30266B012B05462F
:101ED0000F465FFA83F804D040F276412720FFF7DF
:101EE0006FF996F89C303BB1002186F89C100420D5
:101EF000FFF75EFF86F89E80A16F0B7803F0030367
:101F0000032B05D196F8A23013B90220FFF750FF3A
:101F1000A26F137803F00303032B03D05378002B35
:101F20003FD1012386F8A23096F8AC30BBB1D6E998
:101F30004401236B94F848200392C4E918014FF040
:101F4000010893F8690084F868800BF0E0FB002139
:101F500003460091039A1E49404605F02BFBDDB96C
:101F6000D7B1E36F28469847B0B194F834309BB9A5
:101F700094F88030D906C3F300125CBF636C1D78FF
:101F8000D4F884305CBFC5F30015C5F1010553B921
:101F9000B4F888303BB132B904B0BDE8F041FFF786
:101FA00015BF0223BEE7638C9A0709D5A36FDB78C0
:101FB000022BF1D1002004B0BDE8F041FFF742BF91
:101FC000002DE9D1002BF5D0E6E700BFE80900209D
:101FD000380A002008B5094B93F83C20022A04D0A7
:101FE00040F23D212720FFF7EBF8DA7A42F00102B8
:101FF000DA72BDE80840FFF7E9BE00BFE80900203B
:10200000044B93F83C2002F0FF000AB918767047A1
:102010000C207047E80900200A4B0B4A70B50646B1
:102020000D461A60FFF7ECFF18B1DF212720FFF7FC
:10203000C7F8064C012104F18A000DF048FA6664E5
:10204000E56470BD5C000020F8270000E80900206E
:10205000024B012283F8AC20704700BFE809002042
:10206000F0B57F4C85B002AE86E8030094F83C10D2
:102070000A9F01F0FF0511B90AB103B127B94FF466
:10208000A8712720FFF79CF896E8030004F12C0CB8
:102090008CE8030084F8AC5084F8345084F8AD50D8
:1020A00084F8355084F8AE5065842585256BE36748
:1020B0006262A76305F0E8FD05F00CFB95F96C0082
:1020C00005F06EFE686A06F04BF8E86905F06EFEF2
:1020D00095F8BC0005F090FE236B93F80F320BB11E
:1020E00005F0C0FD95F86910012005F055FF0028A6
:1020F00000F0B4805B4B5C4E186806F037F82B6933
:10210000C4F8B0306B69C4F8B43005F5947705F5C0
:102110008C7318685968324603C20833BB421646AE
:10212000F7D1D5F82821C4F869205A684F4B5A6076
:10213000236B93F8A620A2F12501012993F86810DA
:102140000E4603D993F8A700252853D193F8BE3241
:102150002BB1012E03D0012B14BF0226012605F15D
:102160003007314638460DF052FB31460CF0ECFF9B
:10217000AB8F95F86910984228BF184684F8B800CC
:1021800038460DF02DFB95F8691095F8AC70B5F850
:102190004460082908BF04210CF0D6FF0FB90430B1
:1021A00080B2B04228BF304695F8AC30C6B284F851
:1021B000486093B1D5E9442395F869000127C4E943
:1021C000182384F868700BF0A2FA002203460092EC
:1021D00025493246384605F0EDF90120FFF732FE79
:1021E000234BD3F8503523F00803032B2AD14FF4A7
:1021F000FD7146E7203A012A0CD8232893F84E2196
:102200000AD012F0010319D19207A8D5012918BFED
:102210000226A4E723280DD193F84E2193F86130CC
:10222000134013F001020BD19B0798D5012908BF79
:102230000E46ECE7042908BF082690E71E468EE705
:1022400016468CE7002323606360A360B5F8A030D6
:1022500063802B88238095F8BC30237105B0F0BDD6
:10226000E80900205C000020380A0020510A002004
:102270000010004008B50C4B93F83C201AB9BDE89B
:102280000840FFF7A3BD93F83C20022A04D040F297
:1022900013212720FEF794FF1B6BD3F82802BDE81B
:1022A000084005F07DBF00BFE8090020014B18760B
:1022B000704700BFE8090020014B93F8AE0070475B
:1022C000E8090020024B188DC0F38020704700BF42
:1022D000E8090020014B93F8AD007047E8090020A1
:1022E0002DE9F3411E4D82072C6B06460F4622D581
:1022F000D5F8843023B940F267412720FEF760FF0C
:10230000B5F88820296C1846033291F801800AF04C
:1023100077F90DF1020201A92864D5F8B4000BF099
:1023200063F801980BF04AF8012238604146D5F86D
:10233000B4000AF0EFFFF3070ED5D4E944320133BD
:1023400042F10002C4E9443294F8A430012B0CBFDE
:102350000023012384F8A43002B0BDE8F08100BF5F
:10236000E80900202DE9F04FA04C002387B0CDE90B
:10237000043394F83C30276B022B80468A4604D005
:1023800040F2E9412720FEF71BFF238D590606D4B2
:102390004020FFF715FD238D43F04003238597F878
:1023A000AC30B8F1000F00F01281A3B105F0C0F914
:1023B00005F0A4F978B9236C5A7862B11B7897F8C4
:1023C000A420C3F3C0039A4205D1012384F8353019
:1023D000FFF7FCFC4FE1236C5978A4F8881011B387
:1023E000D4F8B4000AF06CFFC4F88400238D97F889
:1023F000A32043F480732385236C1B78C3F38003ED
:102400009A4200F0B980256B95F8A230002B3ED09F
:10241000022B12D1D4F8B00004A90AF0E8FE28B9C2
:1024200040F2E531AEE7C4F88410DFE7D5E9423287
:10243000013342F10002C5E9423295F89E30002195
:1024400085F8A21023B185F89E101020FFF7B0FC8C
:1024500095F89D309BB1002685F89D6002F004FC44
:1024600010B94FF47F718DE731460820FFF7A0FCCB
:10247000D5E94232013342F10002C5E9423295F812
:10248000A330012B0CBF0023012385F8A330238D3B
:1024900043F4806323854FF0000B216C97F8A42050
:1024A0000D78C5F3C0039A4240F0868005F003051D
:1024B000032D266B62D0002D6BD196F8A430013B22
:1024C00018BF012386F8A430236C5B7833B1D6E9BA
:1024D0004432013342F10002C6E9443297F8AB308E
:1024E00093B1D7E94201236BC4E91801002693F8A0
:1024F000680084F868600BF00AF93D4900960346CD
:10250000FB22304605F056F8BAF1000F72D1628C0A
:1025100094F8AD30120703D5A26FD278022A69D0A1
:10252000012B67D8E36F01209847002862D094F808
:102530003490B9F1000F5DD1266B94F8483096F8CD
:10254000AC208DF80D90002A40F09880FF2B96F873
:10255000681003D196F869308B4202D0FF2005F055
:1025600055FB96F8A230032B00F22F81DFE813F021
:1025700089000E0111012401C3468EE7238D01203D
:1025800043F4006386F89C002385FFF711FC0025C7
:1025900093E74B78002BFAD0228DD4F8845042F484
:1025A00000622285002D99D0FB2B07D894F8AC301F
:1025B0005BB12020FFF704FC00258FE794F834304E
:1025C00043F0100384F83430F6E7454675E70BB165
:1025D00005F0E4F894F8AD30013384F8AD30238D84
:1025E000002543F400732385AB4677E7E809002014
:1025F000380A002005F06AFE4FF0010A1DB105A956
:102600000220FFF76DFEBBF1000F0DD0B4F80720DC
:10261000B4F805301343B7F8A02013431EBFB4F835
:1026200009300133A4F80930B8F1000F00F0D5806B
:10263000B4F805300133A4F80530002384F8AD3038
:10264000694803F0FBFB049840B10AF0B7FE216B28
:1026500000234372082201300DF037F8059B33B197
:10266000216B00221A720F2205980DF02EF8BAF194
:10267000000F7FF4ADAE07B0BDE8F08F0433DBB2DE
:1026800064E794F8B830ADF80E305848A6F85830E2
:1026900002F0DAFA00285DD0A16F8020FFF788FBF6
:1026A000012386F89D3096F8A330A26FDB0003F07B
:1026B0000801137803F0F3030B4396F8A410890084
:1026C00001F004010B4323F0100103F00303032B7B
:1026D000117002D1D378022B0FD0D4F8B0000AF0D9
:1026E000CEFD40B9A36F1B7803F00303032B04D086
:1026F00002F0D0FA08B94FF01009A06F037849EA48
:10270000030980F8009096F8AB30002B60D0437836
:10271000002B5DD0E06C05F031FD002384F86830BB
:10272000D6E94223A16FE06CC4E9182304F088FFC6
:1027300096F86910012005F0A9FDA26F1188A4F890
:10274000801091782A4A012384F8AE30917084F881
:102750003C3053E7D4F8B0000DF10D020DF10E013D
:102760000AF022FDA06788B196F8E73073B99DF8AA
:102770000D302BB903808370A06F01210CF0A7FEF0
:10278000BDF80E10A06F0CF06FFF8CE7194BA3671C
:1027900089E7B6F85830D4F8B000ADF80E300DF136
:1027A0000D020DF10E010AF0FFFCA06700287FF476
:1027B0007AAF40F2D621E5E50C4802F045FA002850
:1027C0007FF471AF40F2DF21DCE54FF43B71D9E5D6
:1027D00005F0D4FC04F07EFFAAE7B4F8073001331B
:1027E000A4F807302CE700BF140A0020600A00207C
:1027F000680A0020720A0020D51F0000652300002F
:10280000C11E0000311E000038B5074D044600F11E
:10281000510128680CF0D0FD94F850102868BDE8EC
:1028200038400CF0D7BD00BFA40A0020F8B504461C
:102830000E466588407F15F0040508BF29461346FB
:1028400018BF04F15F01324602F0DEFCC207054604
:102850000BD5012384F85030607F02F039FD036806
:10286000C4F851308388A4F85530AB070CD5094E15
:102870000127306884F85E7004F15F010CF0A3FD5D
:10288000306839460CF0AFFD85F00400C0F38000DD
:10289000F8BD00BFA40A002038B5C38D0E4D01332A
:1028A000C385AB7C04462BB105F0D6FC04F02AFEB0
:1028B0000023AB7400232B7194F871302BB10121EC
:1028C0002046BDE838400BF082BB637C13B1E28D3B
:1028D0009A42F4D20021F3E7A40A002070B5294CF3
:1028E0002379012B07D02379022B04D040F6D7415E
:1028F0002D20FEF765FCA0B90125A37C1BB105F0D6
:10290000ABFC04F0FFFD002D3AD0E0690BF0D7FAE4
:10291000002830D005F0B0FA236ABDE870409B680B
:1029200018472168E26911F8095B02F15103E809CF
:1029300092F850200CF021FB0028DDD02068002107
:102940000CF077FD0028D7D02379E069012B05D062
:102950002379022B02D04FF44B61C9E72379226A15
:1029600003F180435269013B05F00F0152F8233017
:1029700098470546C1E7E069BDE87040FFF78CBFA6
:1029800070BD00BFA40A00202DE9F04104460E46A8
:1029900019B300F1280528460BF0DAF8A0B96388CE
:1029A0001A072DD528460BF0EAF8074628460BF003
:1029B000CFF8381AC0B20BF0F2F8594A93681844AD
:1029C000906028460BF0A0F828460BF0A2F805F01E
:1029D00013FA2179252005F019F9514D94F85E700C
:1029E0002868002303806388103B0D2B61D8DFE843
:1029F00003F05E605A0C603F606060606060603F42
:102A00002046BDE8F041FFF747BF002102F090FDEE
:102A10002A68137823F0200343F020031370204624
:102A2000FFF7F2FE638823F008039BB2152B05D055
:102A300094F83820616B28680CF0DCFC286805F0FD
:102A40009DFB03232B7136B16388102B36D121797E
:102A5000002005F0D7F96388103B0D2B5AD8DFE82A
:102A600003F05C59535359535959595959595953AA
:102A7000012102F05DFD2868037823F0200343F074
:102A80002003037047B104F15F010CF09CFC0121AD
:102A900028680CF0A8FCC2E704F158010CF093FC84
:102AA00094F85710F4E7062102F042FDB7E702213F
:102AB000FAE740F24D612D20FEF782FB04F1280871
:102AC0004046EF680BF05BF8064640460BF040F8D6
:102AD000013E301A61882822C0B200F08DFC638864
:102AE0001B07074406D5AB681F440BF055F8384464
:102AF000C4F8D80022793946002005F0B5FA00283C
:102B0000A9D140F64C51D6E721790120BDE8F0412A
:102B100005F0BCBB4FF45661CDE7BDE8F08100BFC6
:102B2000A40A002038B54388102B044604D1BDE820
:102B300038400121FFF728BF0B4DAB7C23B104F0D7
:102B4000C7FC402005F07CFB286805F017FB608877
:102B500010F0040002D1217905F098FB002005F067
:102B60004BFB01232B7138BDA40A0020024B01212D
:102B7000D869FFF709BF00BFA40A002010B5134CA5
:102B8000A37C1BB105F068FB04F0BCFCE0690BF012
:102B900096F970B12379E069012B0FD12379226A6C
:102BA00003F18043D268013BBDE8104052F8233066
:102BB0001847E069BDE81040FFF76EBE2379022B8D
:102BC000ECD040F6DF312D20FEF7FAFAA40A0020FF
:102BD00018B1084BD869FFF75FBE51B1054A1379A8
:102BE000116AD069096903F18043033B51F823302E
:102BF00018477047A40A00202DE9F043032985B047
:102C0000054690467ED090F8703003F0FF02002B0E
:102C10007DD1052904D16B88D8075FD5002A5DD105
:102C20000127DFF8F09099F81260B6B10CF0E9F9DD
:102C3000082888F8000014D002AA0DF1070102F05C
:102C4000B3FA20B940F628712D20FEF7B9FA9DF8A5
:102C5000070002A90DF0CDF8064698F80030082BC1
:102C600008D1D9F8001011F8030BC0F380100DF053
:102C7000C0F80646D9F8001095F8572011F8030B54
:102C800005F15803C0F380100CF077F9D9F8001063
:102C9000044611F8030BC0F380100CF0A8F981462C
:102CA00002F028FB40B1B9F1080F1CD0484602F0F1
:102CB0009BF980F00100C0B298F80020082A16D0D5
:102CC0009CB96B7F991A4B424B416A88520706D4D4
:102CD00020B99EB9EB7C9BB1BB4211D000231846B2
:102CE00005B0BDE8F0830020E6E70123EDE714B16D
:102CF00080F00104E4B204F00103E6E73346EEE7B6
:102D00000123ECE743889B07E8D5022789E70529DB
:102D1000E4D180E7A40A0020032973B5054604D056
:102D2000052955D0012002B070BD08230DF107021E
:102D30008DF80730FFF760FF0028F3D02B7C294E79
:102D40000BB39DF8070095F8BE30E3B92B7885F8F2
:102D5000BF30082805F1C1022BD005F1C00102F0F7
:102D600023FA20B940F6A5712D20FEF729FA95F82F
:102D7000C03043F0020385F8C0301B49022205F140
:102D8000B6000CF0A2FC306800240421048002F09C
:102D9000CFFB2846FFF738FD95F84020E96B3068F7
:102DA0000CF037FB30680423337105F0E7F9204657
:102DB000B9E73068034613F8031BC1F3801185F8A7
:102DC000C010D0F80310C5F8C1109B889380D4E7D9
:102DD000064B1B6823B1984780F00100C0B2A2E700
:102DE0001846A0E7A40A002045D700006000002094
:102DF0002DE9F04786B008230DF10F0205210446A6
:102E00008DF80F30FFF7F8FE074620B90027384647
:102E100006B0BDE8F0877C4E3168F27C11F8030BF8
:102E200006F11403C0F380100CF0A7F880460028C8
:102E3000ECD1256A326895F8AE30117803EA511367
:102E400003F0010385F8AE30D2F80F30EB61537D0B
:102E5000117D1B0443EA0123D17C0B436B62B2F862
:102E600019000CF0BBF93368A86101460190987D08
:102E70000CF0B8F93368A8850199B3F817000CF085
:102E8000BAF93368A862B3F81B202A84B3F81D206E
:102E90006A8493F8242002F01F0285F8BA20D3F840
:102EA0001F00049093F823308DF8143004A905F125
:102EB000AE000CF0D7F9336893F824305B0985F83D
:102EC000103240F20113A5F868304FF0FF0A85F880
:102ED0006AA005F13000414602F01EFD284694F933
:102EE00012100CF071F9256A84F87B802B88A4F805
:102EF0007C3084F899A04FF6FF73A4F89A30A86943
:102F00009DF80F900CF064F92B8CA4F894306B8C26
:102F1000A4F89200A4F8963095F8103284F898300E
:102F2000237F04F1860283B394F85030012B2CD117
:102F300094F8563003F0C003402B26D1D4F851301A
:102F4000C4F88630B4F85530306893800346B9F140
:102F5000080F13F8032BC2F3801284F87F20D0F8F7
:102F6000030004F1800204F18C0144D0C4F88C0009
:102F70009B888B80484604F17F0102F015F940B927
:102F800040F635412D20FEF71BF90023C4F88630AA
:102F9000DAE794F87F3043F0020384F87F301B496E
:102FA000022204F172000CF090FB236A18491A887F
:102FB000A4F8B32093F8AE3084F8B530022204F1BF
:102FC000AA000CF082FB134B206A1B6800223271AE
:102FD0000BB1214698473368226AD3F80310C2F830
:102FE0000310B3F80710A2F807101B78226AC3F386
:102FF000801393700BE7C4F880009B8893800023B4
:10300000C4F88C308B80CAE7A40A00205DD700008A
:103010002FD700006400002007B50D4B1A799AB134
:103020001A79D869012A02D01A79022A07D19B7C21
:103030002BB1019005F010F904F064FA019803B087
:103040005DF804EBFFF728BC03B05DF804FB00BF9C
:10305000A40A002010B50948037903F0FF0453B90E
:1030600018222146043009F041FB05F0F5F804F080
:1030700049FA204610BD0C24FBE700BFA40A00203B
:1030800010B5094C002323712060FFF7E3FF20B146
:1030900040F21D312D20FEF793F8236A13B94FF447
:1030A0004871F7E710BD00BFA40A0020014B024A97
:1030B0001A627047A40A0020A0330000034B044AA0
:1030C0001A60044B044A1A60704700BF6000002079
:1030D000F12D000064000020653F00002DE9F04163
:1030E000067DB31EDBB2012B04468CBF4FF00008F7
:1030F0004FF001087EB3B71E18BF0127012B36D849
:1031000000F1580190F857000BF071FF08280546B0
:103110002DD001F075FF58BB657784F81C8084F8CA
:10312000507002F03BF805460DF053FA174BA5FB23
:103130000335181845EB01050022C4E9120584F88F
:103140005E2011462046FFF771FB70B940F2BA418C
:103150002D20FEF735F83746082504F151010020EF
:1031600001F0BEFD0028D7D10020BDE8F081082580
:10317000022EF2D0E37E002BF6D0D4F81530C4F83E
:103180005130B4F81930A4F85530C5E740420F006B
:103190002DE9F041634E337988B0044603F0FF0512
:1031A00013B90378FF2B04D140F6D6112D20FEF77A
:1031B00007F85D4B04935D4B05935D4B0693336AB3
:1031C00075715B6880F8715004A807933582B5600B
:1031D000B57104F0CBFF04F057FD05F03DF804F0A5
:1031E00091F9544804F0E2FD534804F0B9FF04F1AA
:1031F000280001900AF088FC01980AF08AFC04F08B
:10320000FBFD2179252004F001FD94F9120004F062
:10321000C7FD2846217904F0BFFE0546F06030B9AD
:103220002046FFF739FB284608B0BDE8F0810121B0
:1032300004F168000BF095FE04F13401206B0AF0F4
:10324000D5F904F13C010746206B0AF0F4F9054674
:103250001FB194F82430002B3ED10DB194F82550C5
:10326000237F13B963885B070AD5D4E912126FF084
:1032700000439A4208BFB1F1FF3F2FD1002D35D155
:103280003068033001F0AEFF6588B07415F00105B9
:1032900046D00023276ACDE90233FF23F37407F1F8
:1032A0000A0802A8FEF7DCFB0028BCD1029CA7425A
:1032B000F7D07A7A607A434604F10A010BF05DFE9A
:1032C0000028EED0A378F374D4F8030070611B4B90
:1032D000B4F807209A80A6E70125C1E70DF079F937
:1032E000D4E91223904271EB0303C7D3012205EA0C
:1032F00002012046FFF79AFA68B101F04FFF054638
:103300000DF067F90E4AA5FB0232181842EB0102D4
:10331000C4E91202B4E7002DB2D040F6172145E708
:10332000012580E7A40A00207D2B0000DD28000095
:10333000D12B0000D6BE898E55555500B80A002005
:1033400040420F00024BD8611B6A1B68184700BF40
:10335000A40A002043881B0710B5044612D5036A4F
:103360000A493C2280F87B201B88A0F87C30FF2390
:1033700080F899304FF6FF73A0F89A30022272302D
:103380000CF0A3F9012384F8713010BD5DD7000063
:10339000192D0000252B0000BDD70000B7D7000075
:1033A00021DA0000193000006D2B00009C33000072
:1033B00094330000903300000138022808B503D987
:1033C000CA212F20FDF7FCFE13290A4B05D811292D
:1033D0000CD8102907D0D821F3E71529FBD103EB2E
:1033E0004003D88801E033F8100008BD03EB400328
:1033F0009889FAE7D48C020008B5431EDBB2012B92
:1034000005D91D291ED0EE212F20FDF7D9FE103938
:103410000D291BD8DFE801F0071A11111A0C1A1A2E
:103420001A1A1A1A1A160B4A02EB4303588A08BDD5
:10343000084A02EB4303D88AF9E7064A02EB430342
:10344000588BF4E740F25A335843F0E74FF4817158
:10345000DAE700BFD48C02000B2808B504D940F28B
:1034600047310620FDF7ACFE014B33F8100008BDD4
:10347000F48C02002DE9F04F2DED028B8BB0044649
:1034800015460293894690F869B00BF05CFC06463D
:1034900094F81002FFF7E0FF94F8A730039330444C
:1034A00085F0010386B2059355BB94F85C32032B7B
:1034B00026D1039B0D2B23D1B4F8BC324B451FD131
:1034C000D4F86432C4F85032A369B4F82E22C4F898
:1034D0005432B4F8A2321344C4F85832204603F0F0
:1034E00067FFD4F8C032A362B4F8BE32A385D4F823
:1034F000C432A361D4F8C8322362022384F85C3258
:10350000B4F8A072B4F8A080A9EB07073FB204F5A5
:103510001E73002F08EE103AB7BFD4E9A423029B14
:10352000C4E9A62301230493CD4BA9EB08081B781B
:103530000FFA88F8B8BF474603F0FF05002B53D0B9
:1035400005F02EFC00286FD0B4F84432012B6BD963
:1035500094F85C32022B67D094F87252002D63D13C
:1035600094F81002FFF778FF94F85C3200F5C86019
:10357000012B86B2D9B24AD194F8AA30D4F828A047
:10358000032B3ED1D4F8545255443146D4F854025A
:1035900005F05CFBD4F85032C4F85002A0EB030AEB
:1035A000D4F858323146284603FB0AFA05F04EFBA0
:1035B000D4F86052C4F86002451B3146A06905F09A
:1035C00045FBAA44B4F82E52D4F858324544ED1BBA
:1035D000DB432B44D4F86452451B05FB03A50123B0
:1035E000C4F8640284F8723294F85C32DFF870A296
:1035F000032B00F28081DFE813F019001401690049
:10360000350128460BF0CAFD00EB0A05BDE7A069AD
:10361000314605F01BFBB4F82E52D4F86432454411
:10362000ED1BC31A5D43DAE70025DDE70121002029
:103630000BF0B4FD8046A06A3146404405F006FB1D
:103640003146C4F86002A06905F000FB07A9C4F880
:10365000640208A804F042FE079B0093D4E9A60187
:10366000DDE9082308F0A8FB074620460AF0C4FB62
:10367000D4F8A832A66A94F869001E4404F074FFD6
:10368000D4F86012A38D203E761AB044A8EB070848
:1036900000F5234030314FF47A7703EB4101A1303C
:1036A000B0FBF7F0A8EB000794F869000AF07BFA8A
:1036B000D4F8A832FB1A2230B3F5C87FCAF8040048
:1036C00055D840F2E5413020FDF77AFDA36AD4F8E1
:1036D00054023146184405F0B9FA3146C4F8600284
:1036E000A06905F0B3FAC4F8640220460AF084FB2E
:1036F000B4F82E32A66AD4F85472002B40F08C80B5
:10370000029B002B00F0888094F869B0584604F0C2
:103710002BFF3E44D4F8AC12D4F8603204938046B8
:10372000203E58460E4404F017FF049BF61A361A42
:1037300008F523484FF47A7708F1A108B8FBF7F8A9
:10374000A6EB0807D4F86012D4F85032D4F8582207
:1037500094F86900303102FB0311A38D03EB4101A2
:103760000AF021FA0123CAF8040084F85C32A66941
:10377000D4F86432A6F21B26F61ADAF804309E4218
:1037800028BF1E466E23A4F88032D4E9A6327F1BE0
:10379000DF1942F100024FF00008C4E9A272C4F838
:1037A000286284F8788204F130000CF017F8B4F83D
:1037B0001812A4F8A092D4E9A223A1EB09090FFAE8
:1037C00089F9C145C4E9A623C8BF022384F88282CF
:1037D000C8BF84F88232039B30440D2BC4F87C02AE
:1037E000029B00F08B80002B40F0898094F85C32C3
:1037F000002B00F0A280A169D4F8643218EE100A00
:10380000C91A0BF070FC80B2002800F09680169B5D
:1038100003B118800120A0E0D4F8600237443F1AB9
:1038200090E7D4F86422A369D4F85802D4F850126F
:103830009B1A5F43B4F82E329844C3439844D4F89B
:103840006032303301FB0033A18D94F8690002FB34
:10385000083301EB43010AF0A6F9CAF8040086E731
:10386000C80A0020A369D4F864021B1A5F4394F8C5
:10387000A630252B03D094F8A730252B0AD1B4F815
:10388000BC32A9EB03031B0404D494F8BF32002B11
:1038900018BF9B46049B03B3B4F82E32EBB9D4F89F
:1038A000AC3213B940F237510DE794F8690004F0D7
:1038B0005BFED4F8AC320646203B94F869000493D2
:1038C00004F04AFE049B1F44381A06F52343A13333
:1038D0004FF47A77B3FBF7F7C71BB4F82E12D4F87E
:1038E0006432414459433031490058460AF05BF98B
:1038F0001C4B58603BE740F24C51E4E6EBB1B4F8A6
:10390000441221B3B4F8462294F84832A4F846226F
:1039100002FB0333994202F101000EDD94F882327A
:103920005BB1002384F88232A4F8460202F078F8F2
:1039300000F00700013084F8480218EE101A94F8DD
:10394000A40207F031FA20B940F29551BBE60A46CD
:10395000DAE7059B84F8703200200BB0BDEC028BD7
:10396000BDE8F08FC80A00202DE9FF41044618B9D0
:1039700098213020FDF724FC082900F23281DFE88D
:1039800011F0090080008A008A00850030011C01C6
:1039900024012E010023C0F8AC3290F87032B0F848
:1039A000A020002B65D0B0F86E3293425BD1B0F806
:1039B0001C22A0F8A020D31AA0F81E32D4E9A2231A
:1039C0002046C4E9A42303F0D7FB94F82332002B4C
:1039D00000F0B680A569D4F86432DFF810829D4209
:1039E00088BFED1A98F8083098BF00251BB9236BE3
:1039F0009D4228BF1D4604F130000BF0EFFE064645
:103A000094F8690004F0B0FDD4F8283203F24517A9
:103A1000BB1900F55F404FF47A774130B0FBF7F007
:103A20001F18022007F0FAFEEE1B26EAE676864211
:103A300028BF06460221304607F03EFF00B9374452
:103A400040F27922394620460BF013FFD4F8283291
:103A5000C8F80C00A069184407F084FE00286FD154
:103A600040F29B3185E79A1AA0F81E22A4F8A030F4
:103A7000A4E7B0F86C329A1AA0F81E22B0F86C32A3
:103A8000F4E704B0BDE8F0410CF0B7BA04B0BDE80B
:103A9000F04104F02FBC0CF09CFDD4E9A423801A63
:103AA00061EB0301012871F1000302DA40F21261B7
:103AB0005FE76FF0010383424FF000038B4102DAAE
:103AC00040F2136155E7A3690BB1B0FBF3F394F82F
:103AD000A710B4F86E220D2935D10132A4F86E2258
:103AE000B4F8A232B4F8A0500133A4F8A232B4F86A
:103AF000DA301D44B4F8D830013DED1AADB20DF105
:103B00000E06B4F86E126B1A1B0436D594F8AA3060
:103B10003549002B0CBF3E23082384F8C93004F13B
:103B2000C0000BF0DEFD20460CF069FA002384F89B
:103B30005C3294F8A40206F0C5FF202384F8A43276
:103B400004B0BDE8F081B4F8A0100B449BB2D11AC8
:103B5000090454BF531C01339BB2A4F86E3294F88D
:103B60007132002BBCD1B4F81C32B4F86E229342EF
:103B700004BF0133A4F86E32B2E7002300961A4660
:103B80002046FFF777FC0028DAD0012812D1B4F8DC
:103B90006E22B4F81812BDF80E301344521A1204F3
:103BA0009BB204D5EA1A12F4004F18BF0B46A4F8D2
:103BB0006E32A6E740F25261DBE6012005F010F814
:103BC00004B0BDE8F04109F0B0BD90F85C32042BC0
:103BD00001D0BC21CDE6002380F85C32B0E7C221E1
:103BE000C7E6C621C5E600BF77F90000C80A002075
:103BF00090F8E8302DE9F04104460D46164603F0F2
:103C0000FF0813B10C20BDE8F0810146474806F0DB
:103C10002FFF20280746F5D05022414604F1C80066
:103C200008F064FD012384F8C870C4F8CC5084F80F
:103C3000E83035B101F00CFF00F00700013085F8E5
:103C40004802204609F0C2FF00274FF48173A4F810
:103C5000FA30A4F8F80084F8F07005F027F8B4F80A
:103C6000F850D235284485B2204609F0CBFE0146F3
:103C700068B30BF068F800F5CD6081B2304604F00F
:103C8000E5FF3044C4F8F4000CF0A3FC281841F11F
:103C90000001C4E94001012084F8D000E78409F064
:103CA0007EFFDB3E361AC4F8D4604FF0FF326FF06F
:103CB0000043C4E9422394F8C80004F1F00107F07E
:103CC00073F830BB4FF4F4713020FDF779FA2046D9
:103CD00009F0BDFD164FDB30C4F8F400388A40B15E
:103CE000E08C30B101F0B4FE3B8AB0FBF3F202FB92
:103CF000130005440CF06DFC2D1841F10001C4E9DE
:103D00004051002ED1D0751941F10001C4E9425152
:103D1000D1E7D4E9402300252046C4E93823A4F89C
:103D2000EA50294609F09AFE28466CE757DC000065
:103D3000C80A0020F0B5002385B0CDE90033012387
:103D40008DF806306846FDF78BFE70B11B4E0123DF
:103D5000B3740027CDE9027702A8FDF781FE05467E
:103D6000A8B10020B07405B0F0BD00980AF083F847
:103D7000E8E790F8A40207F0D3FE94F8A40284F8D0
:103D80005C5206F09FFE202384F8A432E2E7029BF7
:103D9000002BE1D093F8A422202ADDD018884FF61A
:103DA000FF739842DDD02946FDF720FE0446002827
:103DB000DFD140F223113020FDF702FAC80A0020BB
:103DC000054B002201211A7219709A7442F2107286
:103DD0001A82FFF7AFBF00BFC80A0020014B18725C
:103DE000704700BFC80A002008B503F0D1FE044B9D
:103DF000DA6882422ABF987C002080F0010008BD6A
:103E0000C80A00202DE9F74F0446052900F2A580D5
:103E1000DFE801F003806D7D849ED0F8AC32002B8A
:103E200053D090F87232002B4FD090F85C32032BB5
:103E30004BD190F869B00AF086FF074694F810025B
:103E4000FFF70AFB814607445846D4F8AC5204F009
:103E500083FBA5EB0008584604F086FB00F2E7332D
:103E60005846D4F828624FF47A7AB3FBFAF3A8EBF9
:103E7000030804F071FB361A584604F075FB00F590
:103E80002340A130B0FBFAF0321A5108A2F16003CE
:103E9000BFB209F5C86929317B431FFA89F9B3FB21
:103EA000F9F360335A08A1EB5303984502D3114448
:103EB000884501D905F060F9A069394604F0C6FECD
:103EC0000023C4F8640284F87232254B9B7C03F013
:103ED000FF0263B9B4F81C12009201232046FFF7D9
:103EE000C9FA38B140F2DC613020FDF769F90423EA
:103EF00084F85C3204F00AF806F018FCB4F8A0204C
:103F0000A4F86E220023A4F8A23284F8713203B020
:103F1000BDE8F08F032380F85C32F8E703F032FE4F
:103F20000546C4F8AC0294F8690004F015FB85421C
:103F300002D24FF46871D7E794F86900D4F8AC5214
:103F400004F00AFB064BDA6815442D1ADD60DEE743
:103F500003B0BDE8F04F09F04FBF40F26F71C3E707
:103F6000C80A00202DE9F84306460C4615468ABBD0
:103F700003F00EFE0121D4E94089074684F8E85099
:103F8000D4F8CC0084F8D05084F8E91001F00EFA8F
:103F9000D4F8CC00C0E9A48994F8C82080F8A42201
:103FA000C0E9A689C0F8A87209F03AFF20B140F232
:103FB0001F713020FDF704F903F0A8FF06F0B6FBEF
:103FC000074994F8C800324604F0DEFD28B940F2F3
:103FD0008271EEE740F29971EBE7BDE8F88300BF2C
:103FE00069390000014B1882704700BFC80A0020E1
:103FF000F0B5070CA7F5AA42144B543A012A03EA7C
:1040000090231FD927F4004042F6AA22801A18BF35
:1040100001200022162116461F2487EA060562EABF
:104020000505013510D0DD03ADB245EA5606E503BE
:10403000ADB2013945EA52024FEA53034FEA540444
:10404000EBD1F0BD0020E4E70020FAE7E0FF3F00FD
:1040500010B501210020FDF7C9FC044670B901210B
:10406000FDF784FC044620B940F20E313920FDF7FB
:10407000A7F8034B93F9001009F0B1FB204610BDDF
:10408000E00A0020304BF0B55A88B0F85C70B0F808
:104090005A609D88974228BF1746964228BF164609
:1040A0001B2E85B00C462ED0B5F5A47F2DD040F642
:1040B00048039D4201A928BF1D460AF0AFF8BDF88C
:1040C0000A309F4228BF1F46BDF80C30E780AB4244
:1040D00028BF2B462381BDF806309E4228BF1E46CE
:1040E000BDF8083066809D4228BF1D46A580FF238D
:1040F0002370E3881B3B9BB2E02B08D940F2A4510C
:104100003920FDF75DF81B2FCED105B0F0BD6388D7
:104110001B3B9BB2E02B02D940F2A651F0E723896A
:10412000A3F5A4739BB2B3F5E06F02D94FF4B56168
:10413000E6E7A388A3F5A4739BB2B3F5E06FE4D9D7
:1041400040F2AA51DCE700BFE00A002008B50AF0FF
:1041500013FF00F061FF00F0E3FB0BF0B4FA01F095
:10416000BFF901F0E5FE01F0D3F9084B1B224FF433
:10417000A4715A809980064B06499A8000221960E2
:10418000DA825A821A835A7408BD00BFE00A0020FE
:10419000F80E002003021B00044B41F64C52C3E909
:1041A00002221B221A74FFF7D1BF00BFF80E0020B5
:1041B0002DE9FF41344DAB68044640F8303F09F02B
:1041C00090FE064600F09CFB10F0200F08BF1B225B
:1041D0002B7C1DBFAA886988A4F85A10A4F85A201D
:1041E00084F83830A4F85C20668700F089FB8B07E0
:1041F00006D5012302A88DF80830039409F06CFF5E
:10420000AE7CEF7CB5F8148041F64C53A36116B92F
:1042100000F07CFB064657BB00F078FB074646B330
:1042200038B302A920468DF808608DF80970ADF802
:104230000A800AF0AFFF6B7801932B7800936A88AD
:10424000AB8804F1140104F11000FDF741FC23696F
:1042500013B940F27B5114E0636913B940F27C5109
:104260000FE0002004B0BDE8F0810920FAE7002E3D
:10427000D7D120880021FDF7CFFB0028F5D040F2F0
:104280006A513920FCF79CFFF80E0020F7B505466F
:104290000E4609F0D7FA002873D0284609F0B2FB81
:1042A00040B1B6F80130013B7F2B03D912242046E0
:1042B00003B0F0BD284609F0A9FB08B90C24F6E7C5
:1042C000284609F0CFFE0028F8D1284609F078FAF0
:1042D00004460028F2D12846FEF700FF0028E5D06A
:1042E000B6F80170F17842F210722846574309F08F
:1042F00076FB284609F07EFB014658B93A46284627
:10430000FFF776FC04460028D1D041F6070139209A
:10431000FCF756FF21460DF10600FDF7EFFA0646C1
:1043200068B3214601F042F8BDF8063033802846D4
:10433000314609F081FB284609F06EFB98B9284602
:1043400009F06CFB01463046FFF732FF04460028B7
:10435000ADD13A4631462846FFF74AFC044620B123
:1043600041F62A01D3E70121EDE7074B9B68002BBB
:104370009DD0024606F5A1713046984797E70D2477
:1043800095E7422493E700BFE00A0020034B5A88D8
:1043900002801B7883700020704700BFF80E002059
:1043A00037B583781A2B054609D8042B05D9012285
:1043B00002FA03F3134A134205D112241AE0292BFF
:1043C00001D03B2BF9D12888B0F5706FF5D2694642
:1043D0000AF030FE88B9019B93F8402102F0FF04F7
:1043E0006AB9AA7883F84121FF2283F84021684600
:1043F0000BF044F9204603B030BD0224FAE70C2448
:10440000F8E700BF200038040188A1F11B039BB22C
:10441000E02B0CD84288A2F5A4739BB244F248105A
:10442000834204D8034B002059809A8070471220A1
:10443000704700BFE00A0020034B5A889B88028027
:1044400043800020704700BFE00A002038B50478A0
:104450004278857804F0010352EA030104F0020473
:1044600001D1112038BDBCB9002DFAD0002B08BFF6
:10447000144601E000242546204609F088FE002865
:10448000EFD0284609F083FE0028EAD0054B002033
:104490009C74DD749882E5E7002BEBD114461D4631
:1044A000EAE700BFF80E002013B5008869460AF05D
:1044B000C1FD18B10224204602B010BD019A92F845
:1044C0005C32DBB292F8C820002AF3D113F0FB0F64
:1044D000F0D0019890F852310BB13A24EBE790F804
:1044E000F23003F0FF04002BF7D190F8E9309B077E
:1044F00006D1012380F8523168460BF0BFF8DAE7A5
:1045000002490222EA300BF0F2F8D4E759FD00002C
:10451000F0B50778EF2F85B004460D4603D9122574
:10452000284605B0F0BDB0F80130ADF80C309DF86C
:104530000C30DA063FD49E0603F0030238D5002A79
:10454000EDD11807EBD46378190711D42179E278FB
:10455000E07942EA0122617942EA0142A17941EA25
:104560000021207A41EA00418A42D8D81F2AD6D9B0
:10457000627A013A062AD2D8A27A032ACFD813F057
:10458000040102D1023A012A03D8E27A012AC6D8EC
:1045900011B9A27C032AC2D813F01001227D19D0D0
:1045A000012ABCD1227E012AB9D8B1B91125B7E7B9
:1045B000032AC6D1B3E713F0600FB0D103F00F02A6
:1045C00003F00703052BBED0931E012BBBD9002A95
:1045D000A5D1B8E7022AE5D1A1E7DA071FD46378AD
:1045E000227D03F0180108291ED1022ADED11B0703
:1045F00009D4E279A37943EA0223227A43EA024307
:10460000B3F5804FD2D8BFB201213846FDF7EEF99D
:10461000064678B109F026FDB8B10C2580E700F018
:1046200031F90028DBD1C1E7022AE0D0A27E002ABE
:10463000DDD0BBE701213846FDF798F9064650B3B7
:10464000164B93F9001009F0CAF8304609F0CFF97B
:1046500021462870E074304609F015F9637E05465E
:10466000002B3FF45DAF00287FF45AAF316B024658
:104670006846FDF7F5FA306B2A46012108F099FFEC
:10468000316B68460422FDF7EBFA306B2A46294667
:1046900008F08FFF44E7072542E700BFE00A00204B
:1046A00070B50579042D8AB0034658D84488B4F50E
:1046B000804F54D82B48465D284400214279857AA2
:1046C000C07BADF8041042F0100242EA460242EA12
:1046D000850242EAC00202F01F028DF80420BDF8F4
:1046E0000420ADF80D201A888DF80F208DF81240A7
:1046F000120A240A8DF811108DF814108DF810206C
:104700008DF813405A7B8DF815205A798DF81620B4
:104710009A79D3F807008DF81720B3F80B209B7B0C
:104720008DF81E307F238DF81F3001238DF80C107B
:1047300006908DF82110ADF81C208DF820308DF8F2
:10474000223003A88DF823108DF824108DF8251041
:104750008DF8261001A9FFF7DBFE0AB070BD12200C
:10476000FBE700BF188D02000278034672B1427861
:1047700062B142881A2A09D982881A2A06D9044ABB
:10478000006810609B88938000207047122070475B
:10479000F80E0020024B02689A600020704700BFAC
:1047A000F80E00200378A3F10A02112A9DBF024AE5
:1047B0000020137412207047F80E002008B5052061
:1047C00000F090F802F022FE014B024A9A6008BD08
:1047D000E00A00208540000008B5FEF767FCFFF7FF
:1047E000EFFABDE808400148FEF74ABCEC0A002099
:1047F00010B50B4C012384F80231FEF75FFC02F088
:1048000031F80AF0B7FB04F203112046FDF704FC6F
:10481000002008F074FEBDE8104000F0C7BF00BFE4
:10482000EC0A002010B5064C064904F502700AF0A7
:104830004BFA04F503700449BDE810400AF044BA8D
:10484000EC0A0020680000207000002010B5094C20
:10485000094904F502700AF037FA04F503700749B4
:104860000AF032FA04F504700549BDE810400AF078
:104870002BBA00BFEC0A0020800000208800002036
:1048800078000020014B93F802017047EC0A0020E9
:1048900010B5074C00F082FFD4F808020AF00CFAB9
:1048A000FFF77AFC01F0ECF8012384F8143210BD14
:1048B000EC0A0020014B93F814027047EC0A002028
:1048C00010B5074CD4F80C020AF0F6F9D4F810022F
:1048D0000AF0F2F9FFF73AFC002384F8143210BD15
:1048E000EC0A0020C2080549012300F0070003FA82
:1048F00000F08B5C18438854704700BF1000002004
:10490000014BD3E90001704710000020034B1868E9
:10491000C0F30020400040F001007047100000206C
:1049200008B504F0BDF9084A002332F8231081428B
:1049300005D302EB83039B78044A137008BD01334F
:104940000C2BF2D10023F7E72C8D0200010D002083
:1049500010B544682388A4F8A03194F8683084F82E
:104960009F11012B06D0022B04D04FF4207106209A
:10497000FCF726FC84F8A23194F86930012B01D0B1
:10498000022BF2D184F8A3310449022204F5CB7042
:104990000AF0ADFE002384F84C3110BD4BED000051
:1049A000406808490388A0F8923190F8603080F898
:1049B000943190F8613080F8953100F289100AF056
:1049C00090BE00BF61ED00002DE9F743456895F802
:1049D000A73095F8A680232B04460F462DD1A73586
:1049E00038460AF02AFE00284DD038460AF01FFE4D
:1049F000814638460AF01DFE01460AF006FA66684E
:104A0000034648B396F86820904225D096F84C01AA
:104A100001280CBF96F84E0196F86400014232D08E
:104A2000B8F1210F18D096F86100014214D152B9A3
:104A30004FF4B6710620FCF7C3FBB8F1210F40F02C
:104A4000B380A635CCE7042A01D0042B31D19342A0
:104A500094BF00230123B3B948460AF0D6F90028D1
:104A600049D096F86930834245D096F84C31012BF5
:104A70000CBF96F84F3196F8653019EA030F14BF52
:104A800001230023BBBB636893F84C21012A19D191
:104A90001E212046FFF75CFFB8F1210F1FD1FA78E5
:104AA0006368182A83F8312110D040F26D217E20EE
:104AB000C1E7082ACBD0082BC9D093422CBF0023D2
:104AC0000123C8E7002283F84C21E5E7092283F897
:104AD000A62093F8E23093BB40F27521E7E700236C
:104AE00020462B700AF00FFF3946204603B0BDE880
:104AF000F0430AF02CBF304601AA39460AF092F979
:104B0000D4F804800646F8B998F84C31012B18D136
:104B100001462046FFF71CFF2E70636803F1A702D1
:104B2000954202D1002283F8A720636803F1A7020F
:104B300095424FF0000534D120460AF0E4FE0020F3
:104B400033E088F84C01E8E738460AF074FDA8F82D
:104B5000BC026068B0F8BC32B0F8A020013B9B1AE0
:104B60009BB247F6FD72934207D9282380F8C930DB
:104B70000F49C0300AF0B5FDD7E790F8A7300D2BEC
:104B800002D00A3B012B01D82A23EFE79DF804301D
:104B900080F8BE329DF8053080F8BF3225232B7097
:104BA000C3E783F8E250CAE7022003B0BDE8F08310
:104BB00077F90000044B002283F822204FF6FF72A1
:104BC0009A84DA841A857047020D0020054B9A8C6E
:104BD000824201BF002283F822204FF6FF729A849E
:104BE000704700BF020D0020014BD884704700BF02
:104BF000020D0020084B998C4FF6FF72914206D1AE
:104C000093F82220012A04D003600120704700237A
:104C100003600020704700BF020D0020064B93F890
:104C20002220012A1FBF0120DA8C83F822009A84F7
:104C300008BF0020704700BF020D0020014B1885FF
:104C4000704700BF020D0020064A918C138D9942D7
:104C500005D192F8223013B1026001207047002084
:104C6000704700BF020D0020094B998C1A8D9142AC
:104C700001D0002070474FF6FF729A8493F82220EB
:104C8000002AF6D0002283F822200120704700BFBE
:104C9000020D0020054B998C1A8D914203BF93F8A9
:104CA0002200B0FA80F0400901207047020D002078
:104CB00050B90A4A1346012003F8010B0868C2F8EC
:104CC00001008A889A807047012805D1034B0A6841
:104CD0009A608A88D8719A81704700BF2C0D002095
:104CE00048B90A4B187880B1D3F80120B3F80530E1
:104CF0000A608B807047012806D1044BD87920B117
:104D00009A680A609B89F4E7002070472C0D002008
:104D100020B9054B187800F00100704701280ABF40
:104D2000014B0020D879F6E72C0D0020F0B51A4B86
:104D300093F800C006460025E8B2844501D8082053
:104D400029E093F853410A7893F854E193F85871A5
:104D5000624093F85241744022444C7884EA0E0435
:104D6000224493F855E18C7884EA0E04144493F8B5
:104D700056E1CA7882EA0E02144493F857E10A79A0
:104D800082EA0E0222444C797C40D44205F10105AE
:104D900003F10703D0D1F0BD3A0D002030B5094B27
:104DA00001465C78002203F58173D0B2844201D8B9
:104DB000082005E013F8015B8D4202F10102F4D1F5
:104DC00030BD00BF3A0D0020F8B5304C6278013A92
:104DD000D2B22318824293F80251627032D013018A
:104DE00001019E1C8F1C2644274406F1100C56F826
:104DF00004EB47F804EB6645F9D182338231234452
:104E0000214403F1100653F8047B41F8047BB342BC
:104E1000F9D1A618211896F8023181F802314FF421
:104E20008577062313FB027213FB0070A318A258A8
:104E3000225004EB000C9B88ACF8043096F83A3111
:104E400081F83A312846FFF7A9FF08281CD12378BA
:104E5000013BDBB29D42237016D007224FF4A976A6
:104E600012FB036312FB0560E218E358235021187C
:104E700093888B80937920788B71FFF78FFF0828B8
:104E80001CBF241884F80251F8BD00BF3A0D002061
:104E9000F0B5254D95F88A4189B0224605F28B116F
:104EA000684607F0ADFB214668460AF084F80446E0
:104EB000B8B300EB4001C9B202A8FCF711FB601EB9
:104EC00095F89361C0B2012495F88A2105E0731C1E
:104ED000B3FBF2F102FB1133DEB206F120030DEB5E
:104EE000030111F8203C002BF1D100EB40022032ED
:104EF0006A4406EB46032B4412F8187C83F894713D
:104F000012F8177C12F8162C83F8957183F8962105
:104F100001F8204C0138AB19C0B2FF2883F88B414F
:104F2000D2D109B0F0BD00BF3A0D002070B50646E1
:104F300088B00C46002A4ED0294A92F89331D018F6
:104F400090F88B1119B9FF212820FCF739F903EBF0
:104F500043011144013391F89451E57091F8955152
:104F600091F8961161710021257180F88B1192F8EA
:104F70008A11B3FBF1F001FB103382F8933192F800
:104F8000B43123B9174902F5D6700AF0ADFB657943
:104F900005F03F0545F0400565710D22002168468A
:104FA00007F0A4FBE3788DF80F3023798DF80E30ED
:104FB00004AA0423694630468DF80D5007F08CF89A
:104FC0009DF81F3023709DF81E3063709DF81D30D2
:104FD000A37008B070BD03216018FCF781FAD6E712
:104FE0003A0D0020914E0000044B5A78824286BF51
:104FF0001B1893F84A010020704700BF3A0D0020AB
:10500000044B5A78824286BF1B1893F84201002055
:10501000704700BF3A0D0020074B00224FF461712A
:105020001A705A7083F8B52183F8B621A3F8B81125
:1050300083F8B421704700BF3A0D0020014B83F87C
:10504000B60170473A0D00202DE9F3478246174616
:105050009846FFF76BFE082889460546064603D0AA
:10506000FFF79CFE082865D1344C6378072B63D882
:10507000082D19D12678731C072E237003D96A21B5
:105080002820FCF79DF840F25312072313FB062358
:10509000D9F80010E150E218B9F804309380C6EB5B
:1050A000C603234483F852A165786B1C2901637001
:1050B0004B1C07F11002234412F8010D03F8010FF5
:1050C000BA42F9D1813108F11003214413F8012DBE
:1050D00001F8012F9845F9D11021404609F0B7FF9A
:1050E0002544102185F84201384609F0B0FF00231D
:1050F000617885F84A0185F83A3185F802611048EF
:10510000019109F058FF019905460E4809F053FF37
:10511000012D03D8002818BF0135EDB284F88A515B
:105120000025284684F89351FFF7B2FE284602B0C6
:10513000BDE8F0871220FAE70720F8E73A0D0020D3
:105140007C0E0020840E002010B5064B58780138E4
:1051500040B2002800DA10BDC4B22046FFF734FE8A
:10516000601EF5E73A0D0020014B83F8B50170474A
:105170003A0D0020014B93F8B50170473A0D00201D
:10518000431E9BB24AF2B71293429DBF024BA3F853
:10519000B8010120002070473A0D0020014BB3F800
:1051A000B80170473A0D002010B50D4B5C78844271
:1051B00014D9184490F80201C0EBC0041C4494F8C0
:1051C00052410C70072140F2531411FB0041581852
:1051D0005B58136083889380012010BD0020FCE79A
:1051E0003A0D00200246074810B590F8B54124B1A9
:1051F000417821B1023002F053F9204610BD0C462F
:10520000FBE700BF3A0D00202DE9F74F2F4C00922D
:105210001A46637883428046894654D9231893F806
:10522000425185F00105E9B193F84A31D3B945F00F
:1052300002070135C2B9F9070BD5062101FB084168
:1052400004EB081001F5857182300092FFF76EFEC5
:10525000009ABB0733D504EB081049460230FFF72C
:1052600065FE2CE02F46E5E794F893614FF0010AC4
:10527000002DE0D004EB060B9BF88B1199B9009B35
:105280000192D3B100F0CCFB06EB460121444FEA7A
:10529000102C81F89401019A81F895C1000C81F8D5
:1052A00096018BF88BA194F88A110136B6FBF1F0C8
:1052B00001FB1066F6B2013DDAE747F00407384615
:1052C00003B0BDE8F08F0027F9E700BF3A0D0020DA
:1052D000074B5A78824209D91A1892F842212AB902
:1052E000062202FB003000F58570704700207047F1
:1052F0003A0D0020064B5A78824281BF1B1893F862
:105300003A01B0FA80F0400998BF0020704700BF12
:105310003A0D0020F8B50E460746062130461546E0
:1053200009F095FE044640B10A482946427800F546
:105330009D7007F0DBF92046F8BD3146384609F08C
:1053400056FE08281FBF034BC018012480F83A51AD
:10535000F1E700BF3A0D002030B50024A0F850401E
:10536000B0F8544042F210754C43B4FBF2F4A0F88C
:105370005440541E05FB0343B3FBF2F3A0F8523034
:10538000094BB3FBF2F30133A0F85830B0F84C30BE
:1053900005FB0344436CB4FBF2F459438464B1FB52
:1053A000F2F2426430BD00BF005A620270B504469A
:1053B0000D4659BB4FF43A7207F098F9012384F86F
:1053C000AE30492384F8F930042384F8FA306FF0C2
:1053D0003B0384F8FB30672384F8FC306FF03F0315
:1053E00084F8FD302B2384F8F830FE2384F836311E
:1053F0007F2384F8A5301E4BC4F89030202384F816
:10540000FE5084F8FF5084F8A43270BD012922D1E7
:1054100000238269A0F82E3280F82332154B134402
:10542000B3FBF2F3C0F8D03040F6B833A0F8D43074
:105430001146438C8830FFF78FFF0BF094F930B1A1
:10544000E069FEF7D5FD10B984F80F52DDE70023BF
:1054500084F80F32D9E70229D7D1B0F8CA32D0F890
:10546000C4228169BDE870408830FFF775BF00BF76
:1054700000E0FCFF7FC3C901074B93F900301844DB
:10548000142804DC10F17F0F03DB40B270471420B6
:1054900070476FF07E007047F40E002007B57F2341
:1054A0000DF107008DF8073002F0E4FE9DF907309A
:1054B00068B10A4A5078404243FA80F0142808DC68
:1054C00010F17F0F07DB40B203B05DF804FB184614
:1054D000FAE71420F8E76FF07E00F5E7F40E0020FD
:1054E000024B00221A705A70704700BFF40E002061
:1054F000054BFF221A70054A01681160017911718C
:1055000000221A70704700BFF60E0020180000201D
:1055100007B5064B186800901B798DF80430684673
:10552000FFF7E6FF03B05DF804FB00BFCDC8020043
:1055300008B5037801F00F0223F00F031343062987
:10554000037003D8034B5B5C437008BDB0212A2075
:10555000FBF736FE5C8D020043784BB1C1783A29E7
:1055600008D8054A0A44D079C31A584258417047AE
:1055700018467047012070475C8D02003A2908B533
:10558000C17004D8064B1944CB79437008BDFF297C
:1055900004D040F27F412A20FBF712FE0123F4E7FA
:1055A0005C8D02002DE9FF478A4602A916469946FE
:1055B00009F040FD054600283FD1039F36B901247C
:1055C00087F8AD40204604B0BDE8F087D7F81080DA
:1055D0003146404607F097FD04460028F2D0194BAB
:1055E0005B88B3422BD3014601AA404607F0E0FE98
:1055F000019B1D809D7097F8AD300198002B0CBF6A
:105600005146022109F063FF0198324649460330B2
:1056100006F0F6FF3146404607F0AAFD044618B9E9
:105620007C212B20FBF7CCFD02A80AF027F8039B76
:10563000A3F81A5287F8AD50C4E70124C2E72C46FC
:10564000C0E700BFF80E0020024B987DC04300F079
:1056500001007047F80E0020034B987D80F0020097
:10566000C0F34000704700BFF80E002010B5094C91
:1056700014220021204607F039F81222002104F1FB
:10568000140007F033F801232373231DC4E900330A
:1056900010BD00BF140F00207FB505460C4619B998
:1056A000FF211020FBF78CFD03888B8000234B72B9
:1056B0004669304607F06EFE014610B94FF484711A
:1056C000EFE701AA304607F073FEE08010B940F220
:1056D0000D11E6E7FB2802D940F20F11E1E701982E
:1056E00009F0FDFE012801D0022805D120722068B2
:1056F00028B94FF49371D4E740F21F11D1E7019913
:10570000E288033106F07CFF304607F059FE10B9FD
:1057100040F22B11C5E70021304607F08DFD10B98E
:105720004FF49871BDE70B4BDA7D82B11A8B288854
:10573000013A02A91A8309F07DFC10B140F2391137
:10574000AFE7039AB2F8BE300133A2F8BE3004B01E
:1057500070BD00BFF80E002010B520B940F25D21E9
:105760001020FBF72DFD41600272EFF3108472B63A
:10577000094B1A1D0260596819B1097A012908BF3D
:105780001A601A681060186004B962B6BDE810406B
:1057900093F8260006F0CCBD140F0020024B83F8CE
:1057A0002600FFF763BF00BF140F0020014B024A21
:1057B0001A6070479000002099560000F7B54C4ED3
:1057C0004C4F054673681B7A0F2B06D1FB7D23B126
:1057D0003B8B13B9002003B0F0BD3369A3B11B7A32
:1057E00093B13469002CF5D0237ADBB20522227202
:1057F000023B0D2B73D8DFE803F018324772727248
:1058000050727272727272657468237A012BE1D0E1
:10581000EFF3108372B672681268726003B962B6F1
:10582000237A002BD9D03461DEE7636823B94FF4C3
:10583000DB711020FBF7C4FC204629469847042062
:10584000EFF3108372B6227A052AD1B201D0002973
:1058500048D10022227232619BB962B611E06368BE
:1058600013B940F2BF11E4E72946204698470346A2
:10587000C3F30723012BADF80400C0B2E0D103232A
:10588000237200289ED0A6E7636813B940F2C911BD
:10589000CFE7204698470020D2E763680BB9D421B0
:1058A000C7E70B222A701A88A5F8032000240122DA
:1058B00018696A71AC71AA70214607F0BDFC3461A9
:1058C000042088E7606810B940F22921B1E70A4B4B
:1058D00029461B6898470023336102207BE740F28A
:1058E0003221A6E7002B7FF46DAF62B66AE700BFF6
:1058F000140F0020F80E0020900000200448037FC1
:1059000023B904490222143009F0DFBE704700BFFA
:10591000140F0020BDF600001B234FF01B128384E0
:10592000038482618382C260038539B94FF4A47312
:10593000034AC3844384C261C3820261704700BFCB
:1059400048014801B0F854200B46B0F84810914285
:10595000F0B528BF1146B0F84C40B0F85620B0F86A
:105960004450C78FB0F84260C187A24228BF224688
:10597000B0F84640A0F84220944238BF14468D4209
:1059800038BF0D468F42A0F84450A0F846402ED1B3
:10599000B61A18BF0126B0F84A50B0F85040B0F817
:1059A00052E0B0F83CC0B0F84070A54228BF254690
:1059B000B0F84E408587744528BF7446AC45A0F8C2
:1059C000404002D1A74200D19EB10088A3F809004F
:1059D000A3F80B50A3F80D40A3F80F10A3F8112063
:1059E000BDE8F04003490222184609F080BE0126B6
:1059F000D1E7F0BD01F700000B8BA2F80B304B8B09
:105A0000A2F80D308B8BA2F80F30CB8BA2F80900D7
:105A10000249A2F81130104609F063BE41F70000B8
:105A2000094AD2E90003434083EAB01181EA4321E5
:105A30004FEAF3435360054B116058434FEAF0605F
:105A400000EB8000704700BF3C0F0020BB79379E01
:105A5000094AD2E90203434083EAB01181EA4321B3
:105A60004FEAF343D360054B916058434FEAF0602F
:105A700000EB8000704700BF3C0F0020BB79379ED1
:105A800038B50A4C04F1080508212846FBF728FD23
:105A9000D4E902231343F7D0FFF7DAFF2060FFF7C2
:105AA000D7FF236860600343F6D038BD3C0F002069
:105AB00070B5044640680D4690F8A72001230021E8
:105AC000883009F0D0FA20B32846666809F054FD02
:105AD000A6F8BC026068B0F8BC32B0F8A010013B78
